{
  "contractName": "lending",
  "abi": [
    {
      "constant": true,
      "inputs": [
        {
          "name": "aadhar",
          "type": "string"
        }
      ],
      "name": "displayBorrowerInfo",
      "outputs": [
        {
          "name": "_aadhar",
          "type": "string"
        },
        {
          "name": "name",
          "type": "string"
        },
        {
          "name": "email",
          "type": "string"
        },
        {
          "name": "phone",
          "type": "string"
        },
        {
          "name": "ind",
          "type": "uint8"
        },
        {
          "name": "year",
          "type": "uint256"
        },
        {
          "name": "funds",
          "type": "uint256"
        },
        {
          "name": "rating",
          "type": "uint256"
        },
        {
          "name": "city",
          "type": "string"
        }
      ],
      "payable": false,
      "stateMutability": "view",
      "type": "function"
    },
    {
      "constant": false,
      "inputs": [
        {
          "name": "aadhar",
          "type": "string"
        },
        {
          "name": "_name",
          "type": "string"
        },
        {
          "name": "_email",
          "type": "string"
        },
        {
          "name": "_phone",
          "type": "string"
        },
        {
          "name": "_ind",
          "type": "uint256"
        },
        {
          "name": "_yearinbus",
          "type": "uint256"
        },
        {
          "name": "_funds",
          "type": "uint256"
        },
        {
          "name": "_city",
          "type": "string"
        },
        {
          "name": "_country",
          "type": "string"
        },
        {
          "name": "_zip",
          "type": "string"
        }
      ],
      "name": "Register_Borrower",
      "outputs": [],
      "payable": false,
      "stateMutability": "nonpayable",
      "type": "function"
    },
    {
      "constant": false,
      "inputs": [
        {
          "name": "borrower_aadhar",
          "type": "string"
        }
      ],
      "name": "lendmoney",
      "outputs": [],
      "payable": true,
      "stateMutability": "payable",
      "type": "function"
    },
    {
      "constant": false,
      "inputs": [],
      "name": "lend",
      "outputs": [],
      "payable": true,
      "stateMutability": "payable",
      "type": "function"
    },
    {
      "constant": false,
      "inputs": [],
      "name": "pay_back",
      "outputs": [],
      "payable": true,
      "stateMutability": "payable",
      "type": "function"
    },
    {
      "constant": false,
      "inputs": [
        {
          "name": "borrower_aadhar",
          "type": "string"
        }
      ],
      "name": "ai_to_approve_loan",
      "outputs": [],
      "payable": false,
      "stateMutability": "nonpayable",
      "type": "function"
    },
    {
      "constant": false,
      "inputs": [
        {
          "name": "aadhar",
          "type": "string"
        },
        {
          "name": "name",
          "type": "string"
        },
        {
          "name": "location",
          "type": "string"
        }
      ],
      "name": "add_lender",
      "outputs": [],
      "payable": false,
      "stateMutability": "nonpayable",
      "type": "function"
    },
    {
      "constant": false,
      "inputs": [
        {
          "name": "amount",
          "type": "uint256"
        },
        {
          "name": "repaydate",
          "type": "uint256"
        }
      ],
      "name": "req_loan",
      "outputs": [],
      "payable": false,
      "stateMutability": "nonpayable",
      "type": "function"
    },
    {
      "payable": true,
      "stateMutability": "payable",
      "type": "fallback"
    }
  ],
  "bytecode": "0x6060604052341561000f57600080fd5b611e438061001e6000396000f30060606040526004361061008e576000357c0100000000000000000000000000000000000000000000000000000000900463ffffffff16806349e8b8c9146100905780637a8126b0146103405780639417f10d1461054a57806397dffc611461059c578063bb5aa21e146105a6578063bf56e47d146105b0578063da0b770f1461060d578063de4d9512146106f0575b005b341561009b57600080fd5b6100eb600480803590602001908201803590602001908080601f0160208091040260200160405190810160405280939291908181526020018383808284378201915050505050509190505061071c565b60405180806020018060200180602001806020018a600881111561010b57fe5b60ff1681526020018981526020018881526020018781526020018060200186810386528f818151815260200191508051906020019080838360005b83811015610161578082015181840152602081019050610146565b50505050905090810190601f16801561018e5780820380516001836020036101000a031916815260200191505b5086810385528e818151815260200191508051906020019080838360005b838110156101c75780820151818401526020810190506101ac565b50505050905090810190601f1680156101f45780820380516001836020036101000a031916815260200191505b5086810384528d818151815260200191508051906020019080838360005b8381101561022d578082015181840152602081019050610212565b50505050905090810190601f16801561025a5780820380516001836020036101000a031916815260200191505b5086810383528c818151815260200191508051906020019080838360005b83811015610293578082015181840152602081019050610278565b50505050905090810190601f1680156102c05780820380516001836020036101000a031916815260200191505b50868103825287818151815260200191508051906020019080838360005b838110156102f95780820151818401526020810190506102de565b50505050905090810190601f1680156103265780820380516001836020036101000a031916815260200191505b509e50505050505050505050505050505060405180910390f35b341561034b57600080fd5b610548600480803590602001908201803590602001908080601f0160208091040260200160405190810160405280939291908181526020018383808284378201915050505050509190803590602001908201803590602001908080601f0160208091040260200160405190810160405280939291908181526020018383808284378201915050505050509190803590602001908201803590602001908080601f0160208091040260200160405190810160405280939291908181526020018383808284378201915050505050509190803590602001908201803590602001908080601f0160208091040260200160405190810160405280939291908181526020018383808284378201915050505050509190803590602001909190803590602001909190803590602001909190803590602001908201803590602001908080601f0160208091040260200160405190810160405280939291908181526020018383808284378201915050505050509190803590602001908201803590602001908080601f0160208091040260200160405190810160405280939291908181526020018383808284378201915050505050509190803590602001908201803590602001908080601f01602080910402602001604051908101604052809392919081815260200183838082843782019150505050505091905050610e61565b005b61059a600480803590602001908201803590602001908080601f01602080910402602001604051908101604052809392919081815260200183838082843782019150505050505091905050611573565b005b6105a461176a565b005b6105ae6117ac565b005b34156105bb57600080fd5b61060b600480803590602001908201803590602001908080601f0160208091040260200160405190810160405280939291908181526020018383808284378201915050505050509190505061188e565b005b341561061857600080fd5b6106ee600480803590602001908201803590602001908080601f0160208091040260200160405190810160405280939291908181526020018383808284378201915050505050509190803590602001908201803590602001908080601f0160208091040260200160405190810160405280939291908181526020018383808284378201915050505050509190803590602001908201803590602001908080601f01602080910402602001604051908101604052809392919081815260200183838082843782019150505050505091905050611954565b005b34156106fb57600080fd5b61071a6004808035906020019091908035906020019091905050611a9d565b005b610724611c12565b61072c611c12565b610734611c12565b61073c611c12565b60008060008061074a611c12565b60008a6040518082805190602001908083835b602083101515610782578051825260208201915060208101905060208303925061075d565b6001836020036101000a03801982511681845116808217855250505050505090500191505090815260200160405180910390206000018054600181600116156101000203166002900480601f01602080910402602001604051908101604052809291908181526020018280546001816001161561010002031660029004801561084c5780601f106108215761010080835404028352916020019161084c565b820191906000526020600020905b81548152906001019060200180831161082f57829003601f168201915b5050505050985060008a6040518082805190602001908083835b60208310151561088b5780518252602082019150602081019050602083039250610866565b6001836020036101000a03801982511681845116808217855250505050505090500191505090815260200160405180910390206001018054600181600116156101000203166002900480601f0160208091040260200160405190810160405280929190818152602001828054600181600116156101000203166002900480156109555780601f1061092a57610100808354040283529160200191610955565b820191906000526020600020905b81548152906001019060200180831161093857829003601f168201915b5050505050975060008a6040518082805190602001908083835b602083101515610994578051825260208201915060208101905060208303925061096f565b6001836020036101000a03801982511681845116808217855250505050505090500191505090815260200160405180910390206003018054600181600116156101000203166002900480601f016020809104026020016040519081016040528092919081815260200182805460018160011615610100020316600290048015610a5e5780601f10610a3357610100808354040283529160200191610a5e565b820191906000526020600020905b815481529060010190602001808311610a4157829003601f168201915b5050505050965060008a6040518082805190602001908083835b602083101515610a9d5780518252602082019150602081019050602083039250610a78565b6001836020036101000a03801982511681845116808217855250505050505090500191505090815260200160405180910390206004018054600181600116156101000203166002900480601f016020809104026020016040519081016040528092919081815260200182805460018160011615610100020316600290048015610b675780601f10610b3c57610100808354040283529160200191610b67565b820191906000526020600020905b815481529060010190602001808311610b4a57829003601f168201915b5050505050955060008a6040518082805190602001908083835b602083101515610ba65780518252602082019150602081019050602083039250610b81565b6001836020036101000a038019825116818451168082178552505050505050905001915050908152602001604051809103902060050160000160009054906101000a900460ff16945060008a6040518082805190602001908083835b602083101515610c275780518252602082019150602081019050602083039250610c02565b6001836020036101000a038019825116818451168082178552505050505050905001915050908152602001604051809103902060050160010154935060008a6040518082805190602001908083835b602083101515610c9b5780518252602082019150602081019050602083039250610c76565b6001836020036101000a038019825116818451168082178552505050505050905001915050908152602001604051809103902060050160020154925060008a6040518082805190602001908083835b602083101515610d0f5780518252602082019150602081019050602083039250610cea565b6001836020036101000a038019825116818451168082178552505050505050905001915050908152602001604051809103902060080154915060008a6040518082805190602001908083835b602083101515610d805780518252602082019150602081019050602083039250610d5b565b6001836020036101000a03801982511681845116808217855250505050505090500191505090815260200160405180910390206009016000018054600181600116156101000203166002900480601f016020809104026020016040519081016040528092919081815260200182805460018160011615610100020316600290048015610e4d5780601f10610e2257610100808354040283529160200191610e4d565b820191906000526020600020905b815481529060010190602001808311610e3057829003601f168201915b505050505090509193959799909294969850565b6000866008811115610e6f57fe5b9050606060405190810160405280826008811115610e8957fe5b81526020018781526020018681525060018c6040518082805190602001908083835b602083101515610ed05780518252602082019150602081019050602083039250610eab565b6001836020036101000a038019825116818451168082178552505050505050905001915050908152602001604051809103902060008201518160000160006101000a81548160ff02191690836008811115610f2757fe5b021790555060208201518160010155604082015181600201559050506060604051908101604052808581526020018481526020018381525060028c6040518082805190602001908083835b602083101515610f975780518252602082019150602081019050602083039250610f72565b6001836020036101000a03801982511681845116808217855250505050505090500191505090815260200160405180910390206000820151816000019080519060200190610fe6929190611c26565b506020820151816001019080519060200190611003929190611c26565b506040820151816002019080519060200190611020929190611c26565b50905050610100604051908101604052808c81526020018b81526020013373ffffffffffffffffffffffffffffffffffffffff1681526020018a815260200189815260200160018d6040518082805190602001908083835b60208310151561109d5780518252602082019150602081019050602083039250611078565b6001836020036101000a0380198251168184511680821785525050505050509050019150509081526020016040518091039020606060405190810160405290816000820160009054906101000a900460ff1660088111156110fa57fe5b600881111561110557fe5b81526020016001820154815260200160028201548152505081526020016000815260200160028d6040518082805190602001908083835b602083101515611161578051825260208201915060208101905060208303925061113c565b6001836020036101000a038019825116818451168082178552505050505050905001915050908152602001604051809103902060606040519081016040529081600082018054600181600116156101000203166002900480601f0160208091040260200160405190810160405280929190818152602001828054600181600116156101000203166002900480156112395780601f1061120e57610100808354040283529160200191611239565b820191906000526020600020905b81548152906001019060200180831161121c57829003601f168201915b50505050508152602001600182018054600181600116156101000203166002900480601f0160208091040260200160405190810160405280929190818152602001828054600181600116156101000203166002900480156112db5780601f106112b0576101008083540402835291602001916112db565b820191906000526020600020905b8154815290600101906020018083116112be57829003601f168201915b50505050508152602001600282018054600181600116156101000203166002900480601f01602080910402602001604051908101604052809291908181526020018280546001816001161561010002031660029004801561137d5780601f106113525761010080835404028352916020019161137d565b820191906000526020600020905b81548152906001019060200180831161136057829003601f168201915b50505050508152505081525060008c6040518082805190602001908083835b6020831015156113c1578051825260208201915060208101905060208303925061139c565b6001836020036101000a03801982511681845116808217855250505050505090500191505090815260200160405180910390206000820151816000019080519060200190611410929190611c26565b50602082015181600101908051906020019061142d929190611c26565b5060408201518160020160006101000a81548173ffffffffffffffffffffffffffffffffffffffff021916908373ffffffffffffffffffffffffffffffffffffffff1602179055506060820151816003019080519060200190611491929190611c26565b5060808201518160040190805190602001906114ae929190611c26565b5060a08201518160050160008201518160000160006101000a81548160ff021916908360088111156114dc57fe5b02179055506020820151816001015560408201518160020155505060c0820151816008015560e0820151816009016000820151816000019080519060200190611526929190611c26565b506020820151816001019080519060200190611543929190611c26565b506040820151816002019080519060200190611560929190611c26565b5050509050505050505050505050505050565b60006008826040518082805190602001908083835b6020831015156115ad5780518252602082019150602081019050602083039250611588565b6001836020036101000a038019825116818451168082178552505050505050905001915050908152602001604051809103902060009054906101000a900473ffffffffffffffffffffffffffffffffffffffff16905034600960003373ffffffffffffffffffffffffffffffffffffffff1673ffffffffffffffffffffffffffffffffffffffff168152602001908152602001600020819055506007805480600101828161165b9190611ca6565b9160005260206000209001600033909190916101000a81548173ffffffffffffffffffffffffffffffffffffffff021916908373ffffffffffffffffffffffffffffffffffffffff160217905550508073ffffffffffffffffffffffffffffffffffffffff166108fc349081150290604051600060405180830381858888f1935050505015156116ea57600080fd5b346005836040518082805190602001908083835b60208310151561172357805182526020820191506020810190506020830392506116fe565b6001836020036101000a0380198251168184511680821785525050505050509050019150509081526020016040518091039020600001600082825403925050819055505050565b3073ffffffffffffffffffffffffffffffffffffffff166108fc349081150290604051600060405180830381858888f1935050505015156117aa57600080fd5b565b600080600091505b60078054905082101561188a576007828154811015156117d057fe5b906000526020600020900160009054906101000a900473ffffffffffffffffffffffffffffffffffffffff1690508073ffffffffffffffffffffffffffffffffffffffff166108fc600960008473ffffffffffffffffffffffffffffffffffffffff1673ffffffffffffffffffffffffffffffffffffffff168152602001908152602001600020549081150290604051600060405180830381858888f19350505050151561187d57600080fd5b81806001019250506117b4565b5050565b60016005826040518082805190602001908083835b6020831015156118c857805182526020820191506020810190506020830392506118a3565b6001836020036101000a038019825116818451168082178552505050505050905001915050908152602001604051809103902060020160146101000a81548160ff021916908315150217905550600680548060010182816119299190611cd2565b91600052602060002090016000839091909150908051906020019061194f929190611cfe565b505050565b6080604051908101604052808481526020018381526020013373ffffffffffffffffffffffffffffffffffffffff168152602001828152506003846040518082805190602001908083835b6020831015156119c4578051825260208201915060208101905060208303925061199f565b6001836020036101000a03801982511681845116808217855250505050505090500191505090815260200160405180910390206000820151816000019080519060200190611a13929190611c26565b506020820151816001019080519060200190611a30929190611c26565b5060408201518160020160006101000a81548173ffffffffffffffffffffffffffffffffffffffff021916908373ffffffffffffffffffffffffffffffffffffffff1602179055506060820151816003019080519060200190611a94929190611c26565b50905050505050565b6000600460003373ffffffffffffffffffffffffffffffffffffffff1673ffffffffffffffffffffffffffffffffffffffff16815260200190815260200160002060000190506080604051908101604052808481526020018381526020013373ffffffffffffffffffffffffffffffffffffffff168152602001600015158152506005826040518082805460018160011615610100020316600290048015611b7c5780601f10611b5a576101008083540402835291820191611b7c565b820191906000526020600020905b815481529060010190602001808311611b68575b50509150509081526020016040518091039020600082015181600001556020820151816001015560408201518160020160006101000a81548173ffffffffffffffffffffffffffffffffffffffff021916908373ffffffffffffffffffffffffffffffffffffffff16021790555060608201518160020160146101000a81548160ff021916908315150217905550905050505050565b602060405190810160405280600081525090565b828054600181600116156101000203166002900490600052602060002090601f016020900481019282601f10611c6757805160ff1916838001178555611c95565b82800160010185558215611c95579182015b82811115611c94578251825591602001919060010190611c79565b5b509050611ca29190611d7e565b5090565b815481835581811511611ccd57818360005260206000209182019101611ccc9190611d7e565b5b505050565b815481835581811511611cf957818360005260206000209182019101611cf89190611da3565b5b505050565b828054600181600116156101000203166002900490600052602060002090601f016020900481019282601f10611d3f57805160ff1916838001178555611d6d565b82800160010185558215611d6d579182015b82811115611d6c578251825591602001919060010190611d51565b5b509050611d7a9190611d7e565b5090565b611da091905b80821115611d9c576000816000905550600101611d84565b5090565b90565b611dcc91905b80821115611dc85760008181611dbf9190611dcf565b50600101611da9565b5090565b90565b50805460018160011615610100020316600290046000825580601f10611df55750611e14565b601f016020900490600052602060002090810190611e139190611d7e565b5b505600a165627a7a72305820e127ec04d0784be3e1330d9055db127acb275f12fbde41a93dbfea9cd63acfd10029",
  "source": "pragma solidity^ 0.4.10;\n\ncontract lending {\n\n\nenum Industry\n{\n  agriculture,\n  textile,\n  women,\n  education,\n  refugees,\n  technology,\n  transportation,\n  grocer,\n  arts\n}\n  struct borrower {\n    string aadhar_no;\n    string name;\n    address eth_add;\n    string email;\n    string phone;\n    Business bus;\n    uint rating;\n    Address add;\n  }\n\n  struct Business\n  {\n    Industry ind;\n    uint yearinbus;\n    uint fundstillnow;\n  }\n\n  struct Address {\n    string city;\n    string country;\n    string zip;\n  }\n\n\n  mapping (string => borrower) borrowermapping;\n  mapping (string => Business) businessmapping;\n  mapping (string => Address) addressmapping;\n\n\n  function Register_Borrower(string aadhar,string _name,string _email,string _phone, uint _ind, uint _yearinbus, uint _funds, string _city, string _country, string _zip)\n  {\n      Industry  ind;\n      ind=Industry(_ind);\n    businessmapping[aadhar]=Business(ind,_yearinbus,_funds);\n    addressmapping[aadhar]=Address(_city,_country,_zip);\n    borrowermapping[aadhar]=borrower(aadhar,_name,msg.sender,_email,_phone,businessmapping[aadhar],0,addressmapping[aadhar]);\n\n  }\n\n  function displayBorrowerInfo(string aadhar) constant returns(string _aadhar,string name,string email,string phone,Industry ind,uint year,uint funds,uint rating,string city)\n  {\n    _aadhar=borrowermapping[aadhar].aadhar_no;\n    name=borrowermapping[aadhar].name;\n    email=borrowermapping[aadhar].email;\n    phone=borrowermapping[aadhar].phone;\n    ind=borrowermapping[aadhar].bus.ind;\n    year=borrowermapping[aadhar].bus.yearinbus;\n    funds=borrowermapping[aadhar].bus.fundstillnow;\n    rating=borrowermapping[aadhar].rating;\n    city=borrowermapping[aadhar].add.city;\n\n  }\n\n  struct lender\n  {\n    string aadhar;\n    string name;\n    address lender_add;\n    string location;\n  }\n\n  mapping (string => lender) aadhartolendermapping;\n\n  function add_lender(string aadhar,string name,string location)\n  {\n    aadhartolendermapping[aadhar]=lender(aadhar,name,msg.sender,location);\n  }\n\n  struct loan_req {\n    uint amount;\n    uint repaydate;\n    address borrower;\n    bool approved;\n  }\n\n  struct fieldpartners {\n    string name;\n    string location;\n    string _type;\n  }\n\nmapping (address => borrower) addresstoborrower;\nmapping (string => loan_req) loanreqtoaadhar;\n  function req_loan(uint amount,uint repaydate)\n  {\n    string aadhar=addresstoborrower[msg.sender].aadhar_no;\n    loanreqtoaadhar[aadhar]=loan_req(amount,repaydate,msg.sender,false);\n  }\nstring[] loans;\n\n  function ai_to_approve_loan(string borrower_aadhar)\n  {\n    loanreqtoaadhar[borrower_aadhar].approved=true;\n    loans.push(borrower_aadhar);\n  }\n\naddress[] lenders;\n  mapping (string => address ) borroweraadhartostringmapping;\n  mapping (address => uint) lendertoamountmapping;\n\n  function lendmoney(string borrower_aadhar) payable\n  {\n    address borroweraddress=borroweraadhartostringmapping[borrower_aadhar];\n    lendertoamountmapping[msg.sender]=msg.value;\n    lenders.push(msg.sender);\n    borroweraddress.transfer(msg.value);\n    loanreqtoaadhar[borrower_aadhar].amount-=msg.value;\n  }\n\n\n function lend() payable {\n   this.transfer(msg.value);\n }\n  function pay_back() payable\n  {\n    uint i;\n    for(i=0;i<lenders.length;i++)\n    {\n      address lender=lenders[i];\n      lender.transfer(lendertoamountmapping[lender]);\n    }\n  }\n\n  function () payable {\n  }\n\n\n}\n",
  "sourcePath": "/home/souradeep/Documents/ayuda/contracts/techgig.sol",
  "compiler": {
    "name": "solc",
    "version": "0.4.18+commit.9cf6e910.Emscripten.clang"
  },
  "schemaVersion": "1.0.1",
  "updatedAt": "2018-05-06T09:07:50.700Z"
}